:100000000C9462000C94D5040C94AE040C94FC0483
:100010000C94FC040C94FC040C948A000C948A004C
:100020000C948A000C948A000C948A000C948A0028
:100030000C948A000C948A000C948A000C948A0018
:100040000C9464040C948A000C948A000C948A002A
:100050000C948A000C948A000C948A000C948A00F8
:100060000C948A000C948A000000000023002600F3
:10007000290000000000240027002A0000000000E2
:10008000250028002B0004040404040404040202D4
:100090000202020203030303030301020408102007
:1000A0004080010204081020010204081020000012
:1000B0000008000201000003040700000000000027
:1000C00000007E0811241FBECFEFD8E0DEBFCDBFF9
:1000D00011E0A0E0B1E0E6E9F5E102C005900D9283
:1000E000A232B107D9F721E0A2E2B1E001C01D922E
:1000F000A83BB207E1F710E0C2E6D0E004C02197C8
:10010000FE010E948F09C136D107C9F70E9474050C
:100110000C94C90A0C94000090E0FC01E255FF4FDA
:100120002491FC01E656FF4F3491FC01EA57FF4F42
:10013000E491EE23C9F0222339F0233001F1A8F431
:10014000213019F1223029F1F0E0EE0FFF1FE458C1
:10015000FF4FA591B4918FB7F894EC91611126C02F
:1001600030953E233C938FBF08952730A9F0283067
:10017000C9F0243049F7809180008F7D03C08091C1
:1001800080008F7780938000DFCF84B58F7784BD28
:10019000DBCF84B58F7DFBCF8091B0008F778093CC
:1001A000B000D2CF8091B0008F7DF9CF3E2BDACF57
:1001B000CF93DF9390E0FC01E656FF4F24918A57DE
:1001C0009F4FFC0184918823C9F090E0880F991F0C
:1001D000FC01EE58FF4FA591B491FC01E458FF4F8C
:1001E000C591D49161110DC09FB7F8948C91209561
:1001F00082238C938881282328839FBFDF91CF910E
:100200000895623051F49FB7F8943C91822F809505
:1002100083238C93E8812E2BEFCF8FB7F894EC914A
:100220002E2B2C938FBFEACF3FB7F89480918B0190
:1002300090918C01A0918D01B0918E0126B5A89B63
:1002400005C02F3F19F00196A11DB11D3FBFBA2F68
:10025000A92F982F8827BC01CD01620F711D811D28
:10026000911D42E0660F771F881F991F4A95D1F7AD
:1002700008958091820190918301A0918401B091B1
:1002800085010196A11DB11D809382019093830188
:10029000A0938401B093850161E08DE00C948C0003
:1002A0000895AF92BF92CF92DF92EF92FF920F9399
:1002B0001F93CF93DF936C017B018B01040F151FFC
:1002C000EB015E01AE18BF08C017D10759F0699164
:1002D000D601ED91FC910190F081E02DC6010995C8
:1002E000892B79F7C501DF91CF911F910F91FF9075
:1002F000EF90DF90CF90BF90AF900895209165016F
:10030000309166012817390771F49091640180914A
:100310006301981741F0E0916401F0E0ED5DFE4F5C
:10032000808190E008958FEF9FEF08950895EF92F8
:10033000FF920F931F93CF93DF93DC015C96ED90B8
:10034000FC905D97E114F10479F481E090E013965C
:100350009C938E93129790E080E0DF91CF911F9154
:100360000F91FF90EF9008955196ED91FC91529767
:1003700050968C915097982F90950FB75E962C9130
:100380005E97122F127021FD6095F8942081112341
:1003900019F1282B2083E7012197F1F728E0462F58
:1003A00050E0308160FF1AC0382B3083E70121977D
:1003B000F1F7BA0175956795215089F7112381F0FE
:1003C0008081892380830FBF5C968D919C910197DA
:1003D000F1F781E090E0C1CF2923DCCF3923E5CFCD
:1003E0009081892BEFCF209165013091660128170C
:1003F000390761F4809163012091640190E0805C91
:100400009F4F821B91098F739927089590E080E098
:100410000895209165013091660128173907B9F4D4
:100420009091640180916301981789F0E0916401D3
:10043000F0E0ED5DFE4F80812091640130E02F5FA0
:100440003F4F2F7333272093640190E008958FEF7F
:100450009FEF0895E0916501F0916601E817F907B3
:1004600069F4A389B4899C918589809589238C93AB
:10047000109266011092650181E0089580E0089570
:10048000CF93DF93EC018A8D9B8D892B01F18091B5
:100490006501909166018C179D07C9F0009711F0D6
:1004A0000E942A028E8D8E7F8E8F10926301109291
:1004B0006401D0936601C0936501EB89FC8980815A
:1004C0009D89892B808381E0DF91CF91089580E021
:1004D000FBCFBF92CF92DF92EF92FF920F931F93C9
:1004E000CF93DF93CDB7DEB72E970FB6F894DEBF6C
:1004F0000FBECDBF49875A876B877C878D879E87C4
:10050000B22E8C0180919301909194010097B1F0EB
:100510000E942A0261E0809199010E94D8000E9405
:1005200014016B017C010E9414016C197D098E0974
:100530009F09683E734081059105A8F339852A8596
:100540009B858C85B9820A831B833C832D839E8384
:100550008F83CE0101967C019E01285F3F4FFC01F5
:1005600080E090E0DC014191840F911DA11DB11D3F
:100570002E173F07C1F78115E7E09E07A105B105DA
:100580000CF449C00796A11DB11D809588876701AD
:1005900088E0C80ED11CD7016D917D0100919301B7
:1005A00010919401D801ED91FC910190F081E02D22
:1005B0006E3709F06DC06DE7C8010995D801ED915E
:1005C000FC910190F081E02D6EE5C8010995CE14F3
:1005D000DF0409F78091930190919401892B09F42C
:1005E00064C060E0809199010E94D80080919301DD
:1005F000909194012E960FB6F894DEBF0FBECDBF3A
:10060000DF91CF911F910F91FF90EF90DF90CF90EE
:10061000BF900C9440028115F6E09F07A105B1053B
:1006200024F00696A11DB11DB0CF811525E09207DB
:10063000A105B10524F00596A11DB11DA6CF811518
:10064000E4E09E07A105B10524F00496A11DB11DAB
:100650009CCF8115F3E09F07A105B10524F0039617
:10066000A11DB11D92CF811522E09207A105B10510
:1006700024F00296A11DB11D88CF8F3F9105A105E1
:10068000B10509F00CF481CF0196A11DB11D7DCFFC
:10069000C8016D3709F09ACF0995D801ED91FC9109
:1006A0000190F081E02D6DE590CF2E960FB6F89475
:1006B000DEBF0FBECDBFDF91CF911F910F91FF9095
:1006C000EF90DF90CF90BF90089590E080E0089584
:1006D000CF93DF9300D000D000D0CDB7DEB7DC01E0
:1006E0001596ED91FC9126960FB6F894DEBF0FBEDD
:1006F000CDBFDF91CF910994CF93DF9300D000D08D
:1007000000D0CDB7DEB72091220121110EC080911B
:100710007A0190917B01A0917C01B0917D0160E311
:100720003DE02F5F2093220130C0213041F48091C1
:10073000700190917101B0E0A0E060E5F1CF22304E
:1007400041F480916E0190916F01B0E0A0E060E60D
:10075000E7CF233049F48091800190918101B0E08E
:10076000A0E060E032E5DDCF60E030E080E090E0E6
:10077000DC01243041F480917E0190917F01B0E052
:10078000A0E061E032E51092220189839A83AB8375
:10079000BC833E83282F3A814B815C817E8180E03F
:1007A00090E026960FB6F894DEBF0FBECDBFDF9166
:1007B000CF910895CF9360917E01C0917F0190E029
:1007C00080E00E9421096C2F81E090E00E942109C5
:1007D00060918001C091810182E090E00E94210936
:1007E0006C2F83E090E0CF910C9421098033910528
:1007F00041F5613082E57807D9F480917E019091CE
:100800007F0122E330E03093AD012093AC0170937F
:10081000B3016093B201092E000CAA0BBB0B8093AD
:10082000AE019093AF01A093B001B093B1010895D0
:10083000611582E57807C9F480918001909181016A
:10084000E0CFC19791F4613082E5780731F450939D
:100850007F0140937E010C94DA036115724529F4FF
:100860005093810140938001F6CF0895EF92FF925B
:100870000F931F93CF93DF93EB018C01000F111F98
:10088000C8010E94190978019FEFE91AF90A8F3F00
:10089000A9F0C8010E941909C82FC7010E941909AF
:1008A00090E0982F8827C80FD92FD11DCE01DF9156
:1008B000CF911F910F91FF90EF900895C7010E9473
:1008C00019098F3F31F7F2CF1F920F920FB60F9297
:1008D00011242F933F938F939F93AF93BF93809156
:1008E000870190918801A0918901B0918A0130918E
:1008F000860123E0230F2D3758F50196A11DB11D68
:10090000209386018093870190938801A0938901A9
:10091000B0938A0180918B0190918C01A0918D01FF
:10092000B0918E010196A11DB11D80938B01909312
:100930008C01A0938D01B0938E01BF91AF919F91D7
:100940008F913F912F910F900FBE0F901F90189590
:1009500026E8230F0296A11DB11DD2CF1F920F9240
:100960000FB60F9211242F933F934F935F936F9382
:100970007F938F939F93AF93BF93EF93FF93E091F8
:100980000201F09103010995FF91EF91BF91AF91A1
:100990009F918F917F916F915F914F913F912F9197
:1009A0000F900FBE0F901F9018951F920F920FB6C9
:1009B0000F9211242F933F934F935F936F937F93E5
:1009C0008F939F93AF93BF93EF93FF93E0910001B9
:1009D000F09101010995FF91EF91BF91AF919F9126
:1009E0008F917F916F915F914F913F912F910F90D8
:1009F0000FBE0F901F9018951F920F920FB60F9277
:100A000011242F933F934F935F936F937F938F9313
:100A10009F93AF93BF93EF93FF93E0916501F091A4
:100A20006601309749F0A685B7858585968D91FF3B
:100A300014C09C918923A1F4FF91EF91BF91AF91D4
:100A40009F918F917F916F915F914F913F912F91E6
:100A50000F900FBE0F901F9018959C91892361F7FE
:100A6000A389B4899C918589809589238C938689F3
:100A700097890197F1F7608D718DA685B7855585AA
:100A800038E020E0CB010197F1F7822F90E09595B7
:100A90008795282F4C91452309F02068315091F714
:100AA000868D81FD20958091630190E001968F7382
:100AB000992730916401381799F0A0916301B0E053
:100AC000AD5DBE4F2C9380936301828D938D019712
:100AD000F1F7A389B4898C919589892B8C93ACCF3C
:100AE000868D8160868FF1CFCF93DF93CDB7DEB750
:100AF00028970FB6F894DEBF0FBECDBF789484B5AB
:100B0000826084BD84B5816084BD85B5826085BD09
:100B100085B5816085BD80916E00816080936E0097
:100B20001092810080918100826080938100809189
:100B3000810081608093810080918000816080933A
:100B400080008091B10084608093B1008091B000FA
:100B500081608093B00080917A00846080937A00F5
:100B600080917A00826080937A0080917A0081601F
:100B700080937A0080917A00806880937A00109246
:100B8000C10000919D0110919E01C801019681153F
:100B900020E49207C8F4880F991F0097C1F00E94C3
:100BA000A4097C018091950190919601DC01F701E7
:100BB00030E020E0201731076CF44D915D914193B6
:100BC00051932F5F3F4FF6CF8FEF9FEFE8CF81E03C
:100BD00090E0E5CF000F111FF701E00FF11F27E6AE
:100BE00031E031832083009711F00E94400AF09297
:100BF0009601E092950180919D0190919E01019650
:100C000090939E0180939D018BE190E090939201DF
:100C10008093910186EF93E09093900180938F01F0
:100C2000E0919301F0919401138E128E118E108E2B
:100C3000178A168A82E490E0958F848F84858631A6
:100C400008F03DC02FE030E0378B268B20E430E009
:100C5000318F208F27E230E0338F228F9091680010
:100C6000883008F4BBC021E08E3008F420E081E039
:100C700001C0880F2A95EAF7892B80936800848544
:100C80002DE630E0883050F02BE630E08E3030F04A
:100C90002CE630E0863110F030E020E0348B238BFE
:100CA000282F30E0883008F09BC091E001C0990FF8
:100CB0008A95EAF7958B848D958D0197F1F7CF0191
:100CC0000E94400262E082E00E94D80061E08DE074
:100CD0000E94D80060E08DE00E948C0089E391E0E2
:100CE0009093010180930001809169008C7F826064
:100CF00080936900E89A60ED77E090E080E00E94E0
:100D0000360490937F0180937E0164EC79E081E06A
:100D100090E00E94360490938101809380015BE310
:100D2000452E56E0552E68EEA62E63E0B62E7CE3E7
:100D3000272EE0E08E2EE0E09E2E332433940091A7
:100D4000930110919401D801ED91FC910084F185FB
:100D5000E02DC8010995181619060CF0FEC0D8013F
:100D6000ED91FC910284F385E02DC8010995E82EF0
:100D7000BEE78B1342C030929F011092A1011092E6
:100D8000A00180919F018823F1F28091A0019091B0
:100D9000A101FC01E157FE4FE38A01969093A10166
:100DA0008093A0010A977CF210929F01E0918F013D
:100DB000F0919001309739F26091A60170E0762FA2
:100DC00066278091A501680F711D8091A401409153
:100DD000A7015091A80190E00995B5CF84E04CCFD0
:100DE0008E3040F42850310991E001C0990F2A95C6
:100DF000EAF760CF2E503109F7CF20919F012223CF
:100E000009F4A1CF2091A0013091A1012130310539
:100E100009F0BBCF6C01EFE1CE22DD248091970178
:100E200090919801C816D90681F5D801ED91FC91F1
:100E30000084F185E02DC8010995892B31F52091B9
:100E4000AC013091AD01121613069CF44091AE0135
:100E50005091AF016091B0017091B1018091B201E8
:100E60009091B3010E9469021092AD011092AC0101
:100E700088CF80919D0190919E0160909B01709020
:100E80009C01892BA1F4F12C63C080919101909178
:100E90009201C816D90609F474CF10929F0171CF40
:100EA00080919B0190919C016816790661F3809175
:100EB0009B0190919C019C01220F331FE0919501B1
:100EC000F0919601E20FF31FC080D18001969093BC
:100ED0009C0180939B0120919D0130919E0182177E
:100EE000930724F010929C0110929B01F601F4806C
:100EF000FF20B1F20190F081E02D0190F081E02D12
:100F0000C6010995B22FA32FF42FE52F6F837887A1
:100F100029833A834B835C836D837E832D813E815D
:100F2000121613060CF0BCCFC2010197F1F720E1B5
:100F300030E04B2F5A2F6F2F7E2F8F8198850E9484
:100F40006902D6011296ED91FC91309709F009954E
:100F5000B1E0FB26F0929F0114CF209182013091E5
:100F600083014091840150918501A8EEB3E00E9475
:100F70008409209180013091810150E040E00E947D
:100F80006509BA01A9016627772780917E019091B2
:100F90007F01B0E0A0E0481759076A077B0708F413
:100FA000A0C010927A0110927B0110927C011092E5
:100FB0007D018FB7F894409187015091880160912D
:100FC000890170918A018FBF80917601909177019C
:100FD000A0917801B09179018053984FAF4FBF4FE6
:100FE00084179507A607B70708F065C08FB7F89470
:100FF000C0908701D0908801E0908901F0908A012B
:101000008FBF2091820130918301409184015091E2
:1010100085018091720190917301A0917401B0914A
:101020007501281B390B4A0B5B0BA8EEB3E00E943D
:101030008409209180013091810150E040E00E94BC
:101040004309229EF001239EF00D11248091760128
:10105000909177019601281B390BC901B5010E94B7
:101060002F09CF010E942F097093710160937001C5
:101070002FB7F8948091870190918801A091890100
:10108000B0918A012FBF8093760190937701A0934E
:101090007801B09379018091820190918301A091B0
:1010A0008401B09185018093720190937301A093A4
:1010B0007401B0937501809170019091710120913C
:1010C0006E0130916F012817390720F490936F015A
:1010D00080936E018114910409F431CE0E940000C6
:1010E0002ECE841B950BA60BB70B80937A019093A1
:1010F0007B01A0937C01B0937D015BCFEF92FF92C7
:101100000F931F93CF93DF9386E190E09093980124
:101110008093970183E090E090939A0180939901E6
:1011200010929C0110929B011092AE011092AF019F
:101130001092B0011092B1011092B3011092B2015D
:101140008FE190E00E94A409EC011B821A8288EED4
:1011500093E0A0E0B0E08C839D83AE83BF8384E105
:1011600091E0998388831F8A1E8A198E188E1B8EA0
:101170001A8E1D8E1C8E6E8D6E7F62606E8F6695D0
:10118000617081E0682783E00E948C0061E083E069
:101190000E94D8009DE9E92E90E0F92EF701849194
:1011A000888B09E810E0F8018491E82FF0E0EE0F59
:1011B000FF1FE458FF4F859194919A8B898B60E0D3
:1011C00083E00E94D8008E8D81FD04C061E083E041
:1011D0000E948C0083E08C87F701E490ED86F80193
:1011E0000491E02FF0E0EE0FFF1FE859FF4F8591CB
:1011F00094919F878E87D0939401C093930110920E
:101200006A011092690181E080936B018EE091E0A8
:1012100090936801809367018CE793E090936D0150
:1012200080936C01DF91CF911F910F91FF90EF9010
:101230000895F999FECF92BD81BDF89A992780B59E
:101240000895262FF999FECF1FBA92BD81BD20BD0A
:101250000FB6F894FA9AF99A0FBE01960895AA1B50
:10126000BB1B51E107C0AA1FBB1FA617B70710F091
:10127000A61BB70B881F991F5A95A9F780959095C3
:10128000BC01CD010895A1E21A2EAA1BBB1BFD01D2
:101290000DC0AA1FBB1FEE1FFF1FA217B307E40755
:1012A000F50720F0A21BB30BE40BF50B661F771FAD
:1012B000881F991F1A9469F760957095809590958D
:1012C0009B01AC01BD01CF010895052E97FB1EF4D3
:1012D00000940E947C0957FD07D00E94430907FC37
:1012E00003D04EF40C947C0950954095309521958F
:1012F0003F4F4F4F5F4F0895909580957095619542
:101300007F4F8F4F9F4F08950E949509A59F900D85
:10131000B49F900DA49F800D911D11240895EE0F90
:10132000FF1F0590F491E02D0994A29FB001B39F97
:10133000C001A39F700D811D1124911DB29F700DDE
:10134000811D1124911D08950F931F93CF93DF9357
:101350008230910510F482E090E0E091B601F091C6
:10136000B70130E020E0B0E0A0E0309799F421151B
:10137000310509F44AC0281B390B24303105D8F552
:101380008A819B816115710589F1FB0193838283B9
:10139000FE0111C040815181028113814817590714
:1013A000E0F04817590799F4109761F012960C93E2
:1013B000129713961C933296CF01DF91CF911F9114
:1013C0000F9108950093B6011093B701F4CF211542
:1013D000310551F04217530738F0A901DB019A019A
:1013E000BD01DF01F801C1CFEF01F9CF9093B70143
:1013F0008093B601CDCFFE01E20FF31F819391934D
:101400002250310939832883D7CF2091B4013091FC
:10141000B501232B41F4209106013091070130934F
:10142000B5012093B40120910401309105012115EB
:10143000310541F42DB73EB74091080150910901A3
:10144000241B350BE091B401F091B501E217F307CD
:10145000A0F42E1B3F0B2817390778F0AC014E5F24
:101460005F4F2417350748F04E0F5F1F5093B501AB
:101470004093B401819391939FCFF0E0E0E09CCF43
:10148000CF93DF930097E9F0FC0132971382128229
:10149000A091B601B091B701ED0130E020E01097C6
:1014A000A1F420813181820F931F2091B4013091EA
:1014B000B5012817390709F061C0F093B501E09331
:1014C000B401DF91CF910895EA01CE17DF07E8F567
:1014D0004A815B819E0141155105B1F7E901FB830A
:1014E000EA8349915991C40FD51FEC17FD0761F4A8
:1014F000808191810296840F951FE90199838883E9
:10150000828193819B838A83F0E0E0E012968D9143
:101510009C9113970097B9F52D913C911197CD01AE
:101520000296820F931F2091B4013091B5012817C4
:10153000390739F6309751F51092B7011092B6017C
:10154000B093B501A093B401BCCFD383C2834081D3
:101550005181840F951FC817D90761F44E5F5F4F03
:1015600088819981480F591F518340838A819B81CB
:10157000938382832115310509F0B0CFF093B70131
:10158000E093B6019ECFFD01DC01C0CF1382128231
:06159000D7CFF894FFCF55
:10159600500150010000B8018000000000006803FF
:1015A600000000009701510165039601F30109024D
:0215B6007E01B4
:00000001FF
