:100000000C9462000C946F040C9448040C949604B5
:100010000C9496040C9496040C948A000C948A0018
:100020000C948A000C948A000C948A000C948A0028
:100030000C948A000C948A000C948A000C948A0018
:100040000C94FE030C948A000C948A000C948A0091
:100050000C948A000C948A000C948A000C948A00F8
:100060000C948A000C948A000000000023002600F3
:10007000290000000000240027002A0000000000E2
:10008000250028002B0004040404040404040202D4
:100090000202020203030303030301020408102007
:1000A0004080010204081020010204081020000012
:1000B0000008000201000003040700000000000027
:1000C0000000290811241FBECFEFD8E0DEBFCDBF4E
:1000D00011E0A0E0B1E0E6E4F7E102C005900D9286
:1000E000A232B107D9F721E0A2E2B1E001C01D922E
:1000F000A63BB207E1F710E0C2E6D0E004C02197CA
:10010000FE010E94760AC136D107C9F70E940E058A
:100110000C94A10B0C94000090E0FC01E255FF4F01
:100120002491FC01E656FF4F3491FC01EA57FF4F42
:10013000E491EE23C9F0222339F0233001F1A8F431
:10014000213019F1223029F1F0E0EE0FFF1FE458C1
:10015000FF4FA591B4918FB7F894EC91611126C02F
:1001600030953E233C938FBF08952730A9F0283067
:10017000C9F0243049F7809180008F7D03C08091C1
:1001800080008F7780938000DFCF84B58F7784BD28
:10019000DBCF84B58F7DFBCF8091B0008F778093CC
:1001A000B000D2CF8091B0008F7DF9CF3E2BDACF57
:1001B000CF93DF9390E0FC01E656FF4F24918A57DE
:1001C0009F4FFC0184918823C9F090E0880F991F0C
:1001D000FC01EE58FF4FA591B491FC01E458FF4F8C
:1001E000C591D49161110DC09FB7F8948C91209561
:1001F00082238C938881282328839FBFDF91CF910E
:100200000895623051F49FB7F8943C91822F809505
:1002100083238C93E8812E2BEFCF8FB7F894EC914A
:100220002E2B2C938FBFEACF3FB7F8948091890192
:1002300090918A01A0918B01B0918C0126B5A89B69
:1002400005C02F3F19F00196A11DB11D3FBFBA2F68
:10025000A92F982F8827BC01CD01620F711D811D28
:10026000911D42E0660F771F881F991F4A95D1F7AD
:1002700008958091800190918101A0918201B091B7
:1002800083010196A11DB11D80938001909381018E
:10029000A0938201B093830161E08DE00C948C0007
:1002A0000895AF92BF92CF92DF92EF92FF920F9399
:1002B0001F93CF93DF936C017B018B01040F151FFC
:1002C000EB015E01AE18BF08C017D10759F0699164
:1002D000D601ED91FC910190F081E02DC6010995C8
:1002E000892B79F7C501DF91CF911F910F91FF9075
:1002F000EF90DF90CF90BF90AF900895209165016F
:10030000309166012817390771F49091640180914A
:100310006301981741F0E0916401F0E0ED5DFE4F5C
:10032000808190E008958FEF9FEF08950895EF92F8
:10033000FF920F931F93CF93DF93DC015C96ED90B8
:10034000FC905D97E114F10479F481E090E013965C
:100350009C938E93129790E080E0DF91CF911F9154
:100360000F91FF90EF9008955196ED91FC91529767
:1003700050968C915097982F90950FB75E962C9130
:100380005E97122F127021FD6095F8942081112341
:1003900019F1282B2083E7012197F1F728E0462F58
:1003A00050E0308160FF1AC0382B3083E70121977D
:1003B000F1F7BA0175956795215089F7112381F0FE
:1003C0008081892380830FBF5C968D919C910197DA
:1003D000F1F781E090E0C1CF2923DCCF3923E5CFCD
:1003E0009081892BEFCF209165013091660128170C
:1003F000390761F4809163012091640190E0805C91
:100400009F4F821B91098F739927089590E080E098
:100410000895209165013091660128173907B9F4D4
:100420009091640180916301981789F0E0916401D3
:10043000F0E0ED5DFE4F80812091640130E02F5FA0
:100440003F4F2F7333272093640190E008958FEF7F
:100450009FEF0895E0916501F0916601E817F907B3
:1004600069F4A389B4899C918589809589238C93AB
:10047000109266011092650181E0089580E0089570
:10048000CF93DF93EC018A8D9B8D892B01F18091B5
:100490006501909166018C179D07C9F0009711F0D6
:1004A0000E942A028E8D8E7F8E8F10926301109291
:1004B0006401D0936601C0936501EB89FC8980815A
:1004C0009D89892B808381E0DF91CF91089580E021
:1004D000FBCFBF92CF92DF92EF92FF920F931F93C9
:1004E000CF93DF93CDB7DEB72E970FB6F894DEBF6C
:1004F0000FBECDBF49875A876B877C878D879E87C4
:10050000B22E8C0180919101909192010097B1F0EF
:100510000E942A0261E0809197010E94D8000E9407
:1005200014016B017C010E9414016C197D098E0974
:100530009F09683E734081059105A8F339852A8596
:100540009B858C85B9820A831B833C832D839E8384
:100550008F83CE0101967C019E01285F3F4FFC01F5
:1005600080E090E0DC014191840F911DA11DB11D3F
:100570002E173F07C1F78115E7E09E07A105B105DA
:100580000CF449C00796A11DB11D809588876701AD
:1005900088E0C80ED11CD7016D917D0100919101B9
:1005A00010919201D801ED91FC910190F081E02D24
:1005B0006E3709F06DC06DE7C8010995D801ED915E
:1005C000FC910190F081E02D6EE5C8010995CE14F3
:1005D000DF0409F78091910190919201892B09F430
:1005E00064C060E0809197010E94D80080919101E1
:1005F000909192012E960FB6F894DEBF0FBECDBF3C
:10060000DF91CF911F910F91FF90EF90DF90CF90EE
:10061000BF900C9440028115F6E09F07A105B1053B
:1006200024F00696A11DB11DB0CF811525E09207DB
:10063000A105B10524F00596A11DB11DA6CF811518
:10064000E4E09E07A105B10524F00496A11DB11DAB
:100650009CCF8115F3E09F07A105B10524F0039617
:10066000A11DB11D92CF811522E09207A105B10510
:1006700024F00296A11DB11D88CF8F3F9105A105E1
:10068000B10509F00CF481CF0196A11DB11D7DCFFC
:10069000C8016D3709F09ACF0995D801ED91FC9109
:1006A0000190F081E02D6DE590CF2E960FB6F89475
:1006B000DEBF0FBECDBFDF91CF911F910F91FF9095
:1006C000EF90DF90CF90BF90089590E080E0089584
:1006D000CF93DF9300D000D000D0CDB7DEB7DC01E0
:1006E0001596ED91FC9126960FB6F894DEBF0FBEDD
:1006F000CDBFDF91CF910994CF93DF9300D000D08D
:1007000000D0CDB7DEB720912201211122C0809107
:100710007A0190917B01A0917C01B0917D0160E311
:100720003DE02F5F2093220189839A83AB83BC83B2
:100730003E83282F3A814B815C817E8180E090E06E
:1007400026960FB6F894DEBF0FBECDBFDF91CF91D6
:100750000895213041F48091700190917101B0E0D1
:10076000A0E060E5DDCF60E030E080E090E0DC011B
:10077000223041F480916E0190916F01B0E0A0E0D1
:1007800060E63DE010922201CFCFCF9380339105F8
:1007900001F560338DE07807D1F480917E0190916E
:1007A0007F0122E330E03093AB012093AA017093E4
:1007B000B1016093B001092E000CAA0BBB0B809312
:1007C000AC019093AD01A093AE01B093AF01CF9176
:1007D0000895C197E1F760337D40C9F7C52F642FB5
:1007E00040937E0150937F0190E080E00E94CC080E
:1007F0006C2F81E090E0CF910C94CC081F920F9267
:100800000FB60F9211242F933F938F939F93AF9323
:10081000BF938091850190918601A0918701B0914D
:1008200088013091840123E0230F2D3758F501967C
:10083000A11DB11D209384018093850190938601B1
:10084000A0938701B09388018091890190918A01DA
:10085000A0918B01B0918C010196A11DB11D8093D7
:10086000890190938A01A0938B01B0938C01BF9171
:10087000AF919F918F913F912F910F900FBE0F904D
:100880001F90189526E8230F0296A11DB11DD2CF07
:100890001F920F920FB60F9211242F933F934F93F5
:1008A0005F936F937F938F939F93AF93BF93EF93D8
:1008B000FF93E0910201F09103010995FF91EF91FF
:1008C000BF91AF919F918F917F916F915F914F9168
:1008D0003F912F910F900FBE0F901F9018951F9270
:1008E0000F920FB60F9211242F933F934F935F9364
:1008F0006F937F938F939F93AF93BF93EF93FF93E8
:10090000E0910001F09101010995FF91EF91BF91F4
:10091000AF919F918F917F916F915F914F913F9197
:100920002F910F900FBE0F901F9018951F920F924E
:100930000FB60F9211242F933F934F935F936F93B2
:100940007F938F939F93AF93BF93EF93FF93E09128
:100950006501F0916601309749F0A685B7858585D8
:10096000968D91FF14C09C918923A1F4FF91EF9182
:10097000BF91AF919F918F917F916F915F914F91B7
:100980003F912F910F900FBE0F901F9018959C9143
:10099000892361F7A389B4899C91858980958923EE
:1009A0008C93868997890197F1F7608D718DA68563
:1009B000B785558538E020E0CB010197F1F7822F0C
:1009C00090E095958795282F4C91452309F0206854
:1009D000315091F7868D81FD20958091630190E0E3
:1009E00001968F73992730916401381799F0A0917F
:1009F0006301B0E0AD5DBE4F2C9380936301828DA7
:100A0000938D0197F1F7A389B4898C919589892BEE
:100A10008C93ACCF868D8160868FF1CFCF93DF939F
:100A200000D000D000D0CDB7DEB7789484B5826016
:100A300084BD84B5816084BD85B5826085BD85B582
:100A4000816085BD80916E00816080936E00109200
:100A5000810080918100826080938100809181007B
:100A6000816080938100809180008160809380000C
:100A70008091B10084608093B1008091B00081606A
:100A80008093B00080917A00846080937A00809196
:100A90007A00826080937A0080917A0081608093EE
:100AA0007A0080917A00806880937A001092C10069
:100AB00000919B0110919C01C8010196811520E4D1
:100AC0009207C8F4880F991F0097C1F00E947C0A12
:100AD0007C018091930190919401DC01F70130E059
:100AE00020E0201731076CF44D915D9141935193B3
:100AF0002F5F3F4FF6CF8FEF9FEFE8CF81E090E081
:100B0000E5CF000F111FF701E00FF11F27E631E0DD
:100B100031832083009711F00E94180BF09294010A
:100B2000E092930180919B0190919C01019690939A
:100B30009C0180939B018BE190E0909390018093C6
:100B40008F0185EC93E090938E0180938D01E0916D
:100B50009101F0919201138E128E118E108E178AD0
:100B6000168A82E490E0958F848F8485863108F020
:100B70003DC02FE030E0378B268B20E430E0318F12
:100B8000208F27E230E0338F228F909168008830E9
:100B900008F4BCC021E08E3008F420E081E001C000
:100BA000880F2A95EAF7892B8093680084852DE6C3
:100BB00030E0883050F02BE630E08E3030F02CE61C
:100BC00030E0863110F030E020E0348B238B282F8A
:100BD00030E0883008F09CC091E001C0990F8A9500
:100BE000EAF7958B848D958D0197F1F7CF010E94DF
:100BF000400262E082E00E94D80061E08DE00E9445
:100C0000D80060E08DE00E948C0089E391E0909331
:100C1000010180930001809169008C7F8260809344
:100C20006900E89A90E080E00E94C4088F3F09F4D0
:100C30007CC090E080E00E94C408182F81E090E022
:100C40000E94C40890E0982F8827810F911D9093EF
:100C50007F0180937E01332433945BE3A52E56E01D
:100C6000B52E60E0862E60E0962E2224239400911B
:100C7000910110919201D801ED91FC910084F185D0
:100C8000E02DC8010995181619060CF007C1D80106
:100C9000ED91FC910284F385E02DC8010995E82EC1
:100CA000BEE78B134CC020929D0110929F011092C1
:100CB0009E0180919D018823F1F280919E01909187
:100CC0009F01FC01E357FE4FE38A019690939F0139
:100CD00080939E010A977CF210929D01E0918D0114
:100CE000F0918E01309739F26091A40170E0762F77
:100CF00066278091A301680F711D8091A201409128
:100D0000A5015091A60190E00995B5CF84E04BCFA5
:100D10008E3040F42850310991E001C0990F2A9596
:100D2000EAF75FCF2E503109F7CF81E090E00E94C3
:100D3000C4088F3F09F07DCF80ED97E088CF2091E8
:100D40009D01222309F497CF20919E0130919F01AC
:100D50002130310509F0B1CF6C01EFE1CE22DD2465
:100D60008091950190919601C816D90681F5D80118
:100D7000ED91FC910084F185E02DC8010995892B46
:100D800031F52091AA013091AB01121613069CF4A3
:100D90004091AC015091AD016091AE017091AF01F5
:100DA0008091B0019091B1010E9469021092AB0153
:100DB0001092AA017ECF80919B0190919C0160903E
:100DC000990170909A01892BA1F4F12C63C0809154
:100DD0008F0190919001C816D90609F46ACF10923C
:100DE0009D0167CF8091990190919A0168167906CB
:100DF00061F38091990190919A019C01220F331F18
:100E0000E0919301F0919401E20FF31FC080D18033
:100E1000019690939A018093990120919B013091C2
:100E20009C018217930724F010929A011092990165
:100E3000F601F480FF20B1F20190F081E02D0190E5
:100E4000F081E02DC6010995B22FA32FF42FE52FD5
:100E5000562E472E29833A834B835C836D837E8392
:100E60002D813E81121613060CF0BCCFC5010197EF
:100E7000F1F720E130E04B2F5A2F6F2F7E2F852D79
:100E8000942D0E946902D6011296ED91FC91309743
:100E900009F00995F324F0929D010BCF6091800138
:100EA0007091810180918201909183010E947D095E
:100EB00020E030E040E05FE30E94090A0E944C0914
:100EC000AB0170E060E080917E0190917F01092E7E
:100ED000000CAA0BBB0B481759076A077B0708F4DD
:100EE000ABC010927A0110927B0110927C0110929B
:100EF0007D018FB7F89440918501509186016091F2
:100F00008701709188018FBF809176019091770160
:100F1000A0917801B09179018053984FAF4FBF4FA6
:100F200084179507A607B70708F070C08FB7F89425
:100F3000C0908501D0908601E0908701F0908801F3
:100F40008FBF6091800170918101809182019091A9
:100F5000830100917201109173012091740130910D
:100F60007501601B710B820B930B0E947D0920E0C1
:100F700030E040E05FE30E94090A20E030E040E713
:100F800052E40E94090A2B013C0180917601909164
:100F90007701C81AD90AB601DD0C880B990B0E949B
:100FA0007D0920E030E04AE754E40E94DA089B0122
:100FB000AC01C301B2010E94DA080E944C0970938F
:100FC0007101609370012FB7F89480918501909121
:100FD0008601A0918701B09188012FBF809376018F
:100FE00090937701A0937801B0937901809180016B
:100FF00090918101A0918201B0918301809372014F
:1010000090937301A0937401B09375018091700166
:101010009091710120916E0130916F01281739076D
:1010200020F490936F0180936E018114910409F470
:101030001ECE0E9400001BCE841B950BA60BB70B87
:1010400080937A0190937B01A0937C01B0937D0102
:1010500050CFEF92FF920F931F93CF93DF9386E1D0
:1010600090E0909396018093950183E090E09093B7
:1010700098018093970110929A0110929901109211
:10108000AC011092AD011092AE011092AF0110921E
:10109000B1011092B0018FE190E00E947C0AEC0156
:1010A0001B821A8288EE93E0A0E0B0E08C839D83DF
:1010B000AE83BF8384E191E0998388831F8A1E8A6F
:1010C000198E188E1B8E1A8E1D8E1C8E6E8D6E7F45
:1010D00062606E8F6695617081E0682783E00E9490
:1010E0008C0061E083E00E94D8009DE9E92E90E049
:1010F000F92EF7018491888B09E810E0F8018491BA
:10110000E82FF0E0EE0FFF1FE458FF4F8591949118
:101110009A8B898B60E083E00E94D8008E8D81FDE0
:1011200004C061E083E00E948C0083E08C87F701BB
:10113000E490ED86F8010491E02FF0E0EE0FFF1F40
:10114000E859FF4F859194919F878E87D0939201A4
:10115000C093910110926A011092690181E080931D
:101160006B018EE091E090936801809367018CE7BA
:1011700093E090936D0180936C01DF91CF911F916B
:101180000F91FF90EF900895F999FECF92BD81BD28
:10119000F89A992780B50895262FF999FECF1FBA9E
:1011A00092BD81BD20BD0FB6F894FA9AF99A0FBE90
:1011B000019608950E94EE080C94CF090E94C80978
:1011C00058F00E94C10940F029F45F3F29F00C94C7
:1011D000B80951110C94030A0C94BE090E94E0094D
:1011E00068F39923B1F3552391F3951B550BBB2756
:1011F000AA2762177307840738F09F5F5F4F220F9B
:10120000331F441FAA1FA9F335D00E2E3AF0E0E891
:1012100032D091505040E695001CCAF72BD0FE2FDB
:1012200029D0660F771F881FBB1F2617370748076F
:10123000AB07B0E809F0BB0B802DBF01FF27935827
:101240005F4F3AF09E3F510578F00C94B8090C942A
:10125000030A5F3FE4F3983ED4F38695779567954C
:10126000B795F7959F5FC9F7880F911D969587955C
:1012700097F90895E1E0660F771F881FBB1F62177B
:1012800073078407BA0720F0621B730B840BBA0B39
:10129000EE1F88F7E09508950E94E80988F09F57AF
:1012A00098F0B92F9927B751B0F0E1F0660F771F8A
:1012B000881F991F1AF0BA95C9F714C0B13091F080
:1012C0000E94020AB1E008950C94020A672F782F59
:1012D0008827B85F39F0B93FCCF386957795679545
:1012E000B395D9F73EF490958095709561957F4FB1
:1012F0008F4F9F4F0895E89409C097FB3EF4909557
:101300008095709561957F4F8F4F9F4F9923A9F0DE
:10131000F92F96E9BB279395F6958795779567956D
:10132000B795F111F8CFFAF4BB0F11F460FF1BC0B1
:101330006F5F7F4F8F4F9F4F16C0882311F096E944
:1013400011C0772321F09EE8872F762F05C06623F2
:1013500071F096E8862F70E060E02AF09A95660FAB
:10136000771F881FDAF7880F9695879597F9089564
:1013700097F99F6780E870E060E008959FEF80EC48
:10138000089500240A9416161706180609060895EB
:1013900000240A9412161306140605060895092E51
:1013A0000394000C11F4882352F0BB0F40F4BF2BC0
:1013B00011F460FF04C06F5F7F4F8F4F9F4F089500
:1013C00057FD9058440F551F59F05F3F71F04795F6
:1013D000880F97FB991F61F09F3F79F087950895DB
:1013E000121613061406551FF2CF4695F1DF08C0FA
:1013F000161617061806991FF1CF86957105610517
:1014000008940895E894BB2766277727CB0197F9BE
:1014100008950E941C0A0C94CF090E94C10938F05B
:101420000E94C80920F0952311F00C94B8090C947F
:10143000BE0911240C94030A0E94E00970F3959FE1
:10144000C1F3950F50E0551F629FF001729FBB27BB
:10145000F00DB11D639FAA27F00DB11DAA1F649F57
:101460006627B00DA11D661F829F2227B00DA11D0A
:10147000621F739FB00DA11D621F839FA00D611D90
:10148000221F749F3327A00D611D231F849F600DB1
:10149000211D822F762F6A2F11249F5750409AF0DA
:1014A000F1F088234AF0EE0FFF1FBB1F661F771F66
:1014B000881F91505040A9F79E3F510580F00C9431
:1014C000B8090C94030A5F3FE4F3983ED4F3869581
:1014D00077956795B795F795E7959F5FC1F7FE2BD1
:1014E000880F911D9695879597F90895EE0FFF1F28
:1014F0000590F491E02D09940F931F93CF93DF9300
:101500008230910510F482E090E0E091B401F09116
:10151000B50130E020E0B0E0A0E0309799F421156B
:10152000310509F44AC0281B390B24303105D8F5A0
:101530008A819B816115710589F1FB019383828307
:10154000FE0111C040815181028113814817590762
:10155000E0F04817590799F4109761F012960C9330
:10156000129713961C933296CF01DF91CF911F9162
:101570000F9108950093B4011093B501F4CF211594
:10158000310551F04217530738F0A901DB019A01E8
:10159000BD01DF01F801C1CFEF01F9CF9093B50193
:1015A0008093B401CDCFFE01E20FF31F819391939D
:1015B0002250310939832883D7CF2091B20130914D
:1015C000B301232B41F420910601309107013093A0
:1015D000B3012093B201209104013091050121153E
:1015E000310541F42DB73EB74091080150910901F2
:1015F000241B350BE091B201F091B301E217F30720
:10160000A0F42E1B3F0B2817390778F0AC014E5F72
:101610005F4F2417350748F04E0F5F1F5093B301FB
:101620004093B201819391939FCFF0E0E0E09CCF93
:10163000CF93DF930097E9F0FC0132971382128277
:10164000A091B401B091B501ED0130E020E0109718
:10165000A1F420813181820F931F2091B20130913A
:10166000B3012817390709F061C0F093B301E09383
:10167000B201DF91CF910895EA01CE17DF07E8F5B7
:101680004A815B819E0141155105B1F7E901FB8358
:10169000EA8349915991C40FD51FEC17FD0761F4F6
:1016A000808191810296840F951FE9019983888337
:1016B000828193819B838A83F0E0E0E012968D9192
:1016C0009C9113970097B9F52D913C911197CD01FD
:1016D0000296820F931F2091B2013091B301281717
:1016E000390739F6309751F51092B5011092B401CF
:1016F000B093B301A093B201BCCFD383C283408126
:101700005181840F951FC817D90761F44E5F5F4F51
:1017100088819981480F591F518340838A819B8119
:10172000938382832115310509F0B0CFF093B50181
:10173000E093B4019ECFFD01DC01C0CF1382128281
:06174000D7CFF894FFCFA3
:10174600500150010000B60180000000000068034F
:10175600000000009701510165039601F30109029B
:021766007E0102
:00000001FF
