:100000000C9462000C948A000C948A000C944904AD
:100010000C9449040C9449040C948A000C948A00B2
:100020000C948A000C948A000C948A000C948A0028
:100030000C948A000C948A000C948A000C948A0018
:100040000C94FF030C948A000C948A000C948A0090
:100050000C948A000C948A000C948A000C948A00F8
:100060000C948A000C948A000000000023002600F3
:10007000290000000000240027002A0000000000E2
:10008000250028002B0004040404040404040202D4
:100090000202020203030303030301020408102007
:1000A0004080010204081020010204081020000012
:1000B0000008000201000003040700000000000027
:1000C0000000790711241FBECFEFD8E0DEBFCDBFFF
:1000D00011E0A0E0B1E0E8EAF2E102C005900D9283
:1000E000AE31B107D9F721E0AEE1B1E001C01D9218
:1000F000A53BB207E1F710E0C2E6D0E004C02197CB
:10010000FE010E942708C136D107C9F70E94C10429
:100110000C9452090C94000090E0FC01E255FF4F52
:100120002491FC01E656FF4F3491FC01EA57FF4F42
:10013000E491EE23C9F0222339F0233001F1A8F431
:10014000213019F1223029F1F0E0EE0FFF1FE458C1
:10015000FF4FA591B4918FB7F894EC91611126C02F
:1001600030953E233C938FBF08952730A9F0283067
:10017000C9F0243049F7809180008F7D03C08091C1
:1001800080008F7780938000DFCF84B58F7784BD28
:10019000DBCF84B58F7DFBCF8091B0008F778093CC
:1001A000B000D2CF8091B0008F7DF9CF3E2BDACF57
:1001B000CF93DF9390E0FC01E656FF4F24918A57DE
:1001C0009F4FFC0184918823D1F090E0880F991F04
:1001D000FC01EE58FF4FA591B491FC01E458FF4F8C
:1001E000C591D49161110EC09FB7F8948C91E22F04
:1001F000E0958E238C932881E223E8839FBFDF91D3
:10020000CF9108958FB7F894EC91E22BEC938FBFC8
:10021000F6CF3FB7F8948091880190918901A09121
:100220008A01B0918B0126B5A89B05C02F3F19F01C
:100230000196A11DB11D3FBFBA2FA92F982F882766
:10024000BC01CD01620F711D811D911D42E0660F41
:10025000771F881F991F4A95D1F70895AF92BF92D3
:10026000CF92DF92EF92FF920F931F93CF93DF9382
:100270006C017B018B01040F151FEB015E01AE18B1
:10028000BF08C017D10759F06991D601ED91FC91D3
:100290000190F081E02DC6010995892B79F7C50100
:1002A000DF91CF911F910F91FF90EF90DF90CF9052
:1002B000BF90AF900895209162013091630128179B
:1002C000390771F49091610180916001981741F0B4
:1002D000E0916101F0E0E05EFE4F808190E00895E2
:1002E0008FEF9FEF08950895EF92FF920F931F9362
:1002F000CF93DF93DC015C96ED90FC905D97E11469
:10030000F10479F481E090E013969C938E93129718
:1003100090E080E0DF91CF911F910F91FF90EF90DF
:1003200008955196ED91FC91529750968C9150976B
:10033000982F90950FB75E962C915E97122F1270A2
:1003400021FD6095F8942081112319F1282B208339
:10035000E7012197F1F728E0462F50E0308160FF58
:100360001AC0382B3083E7012197F1F7BA01759550
:100370006795215089F7112381F08081892380833B
:100380000FBF5C968D919C910197F1F781E090E011
:10039000C1CF2923DCCF3923E5CF9081892BEFCF43
:1003A00020916201309163012817390761F480912F
:1003B00060012091610190E0805C9F4F821B910958
:1003C0008F739927089590E080E00895209162014D
:1003D0003091630128173907B9F490916101809138
:1003E0006001981789F0E0916101F0E0E05EFE4F56
:1003F00080812091610130E02F5F3F4F2F733327C1
:100400002093610190E008958FEF9FEF0895E091B0
:100410006201F0916301E817F90769F4A389B489CF
:100420009C918589809589238C9310926301109209
:10043000620181E0089580E00895CF93DF93EC019D
:100440008A8D9B8D892B01F18091620190916301CE
:100450008C179D07C9F0009711F00E9407028E8D3E
:100460008E7F8E8F1092600110926101D093630194
:10047000C0936201EB89FC8980819D89892B8083EF
:1004800081E0DF91CF91089580E0FBCFBF92CF92C2
:10049000DF92EF92FF920F931F93CF93DF93CDB72D
:1004A000DEB72E970FB6F894DEBF0FBECDBF4987DB
:1004B0005A876B877C878D879E87B22E8C018091AF
:1004C0009001909191010097B1F00E94070261E0C4
:1004D000809196010E94D8000E9409016B017C0165
:1004E0000E9409016C197D098E099F09683E7340BD
:1004F00081059105A8F339852A859B858C85B9826C
:100500000A831B833C832D839E838F83CE010196B8
:100510007C019E01285F3F4FFC0180E090E0DC0100
:100520004191840F911DA11DB11D2E173F07C1F7E9
:100530008115E7E09E07A105B1050CF449C00796B7
:10054000A11DB11D80958887670188E0C80ED11C68
:10055000D7016D917D010091900110919101D80119
:10056000ED91FC910190F081E02D6E3709F06DC0A6
:100570006DE7C8010995D801ED91FC910190F081DA
:10058000E02D6EE5C8010995CE14DF0409F78091CE
:10059000900190919101892B09F464C060E08091F1
:1005A00096010E94D80080919001909191012E9621
:1005B0000FB6F894DEBF0FBECDBFDF91CF911F9174
:1005C0000F91FF90EF90DF90CF90BF900C941D02A1
:1005D0008115F6E09F07A105B10524F00696A11D3F
:1005E000B11DB0CF811525E09207A105B10524F01A
:1005F0000596A11DB11DA6CF8115E4E09E07A105BA
:10060000B10524F00496A11DB11D9CCF8115F3E026
:100610009F07A105B10524F00396A11DB11D92CF3E
:10062000811522E09207A105B10524F00296A11DD3
:10063000B11D88CF8F3F9105A105B10509F00CF4DC
:1006400081CF0196A11DB11D7DCFC8016D3709F085
:100650009ACF0995D801ED91FC910190F081E02DA0
:100660006DE590CF2E960FB6F894DEBF0FBECDBFCE
:10067000DF91CF911F910F91FF90EF90DF90CF907E
:10068000BF90089590E080E00895CF93DF9300D06D
:1006900000D000D0CDB7DEB7DC011596ED91FC910E
:1006A00026960FB6F894DEBF0FBECDBFDF91CF9177
:1006B0000994CF93DF9300D000D000D0CDB7DEB740
:1006C00040911E0150911F014115510589F48091FF
:1006D0007C0190917D01092E000CAA0BBB0B60E000
:1006E00024E44F5F5F4F50931F0140931E0169C088
:1006F0004130510551F48091780190917901A09198
:100700007A01B0917B0161E0EBCF4230510551F4A9
:100710008091760190917701092E000CAA0BBB0BFA
:1007200062E0DECF4330510551F480917401909125
:100730007501092E000CAA0BBB0B63E0D1CF44302E
:10074000510551F48091720190917301092E000CB2
:10075000AA0BBB0B64E0C4CF4530510539F480913E
:10076000710190E0B0E0A0E065E0BACF46305105FD
:1007700051F480916F0190917001092E000CAA0B29
:10078000BB0B66E0ADCF4730510551F480916D0150
:1007900090916E01092E000CAA0BBB0B64E1A0CF57
:1007A0004830510519F580916B0190916C01092E2B
:1007B000000CAA0BBB0B65E124E410921F01109200
:1007C0001E0189839A83AB83BC832E83282F3A81B1
:1007D0004B815C817E8180E090E026960FB6F89494
:1007E000DEBF0FBECDBFDF91CF91089560E020E066
:1007F00080E090E0DC0148305105FCF672CF1F929A
:100800000F920FB60F9211242F933F938F939F93C4
:10081000AF93BF938091840190918501A09186014F
:10082000B09187013091830123E0230F2D3758F5D4
:100830000196A11DB11D20938301809384019093A3
:100840008501A0938601B0938701809188019091E2
:100850008901A0918A01B0918B010196A11DB11D62
:100860008093880190938901A0938A01B0938B01B2
:10087000BF91AF919F918F913F912F910F900FBE9C
:100880000F901F90189526E8230F0296A11DB11D09
:10089000D2CF1F920F920FB60F9211242F933F9336
:1008A0004F935F936F937F938F939F93AF93BF9378
:1008B000EF93FF93E0916201F0916301309749F06B
:1008C000A685B7858585968D91FF14C09C91892357
:1008D000A1F4FF91EF91BF91AF919F918F917F9183
:1008E0006F915F914F913F912F910F900FBE0F909D
:1008F0001F9018959C91892361F7A389B4899C91D5
:100900008589809589238C93868997890197F1F74A
:10091000608D718DA685B785558538E020E0CB01C7
:100920000197F1F7822F90E095958795282F4C91AC
:10093000452309F02068315091F7868D81FD20957F
:100940008091600190E001968F7399273091610149
:10095000381799F0A0916001B0E0A05EBE4F2C93D3
:1009600080936001828D938D0197F1F7A389B489FB
:100970008C919589892B8C93ACCF868D8160868FE5
:10098000F1CFCF93DF93CDB7DEB728970FB6F894AA
:10099000DEBF0FBECDBF789484B5826084BD84B5C0
:1009A000816084BD85B5826085BD85B5816085BD6A
:1009B00080916E00816080936E0010928100809122
:1009C00081008260809381008091810081608093AA
:1009D0008100809180008160809380008091B100CF
:1009E00084608093B1008091B00081608093B000FA
:1009F00080917A00846080937A0080917A0082608E
:100A000080937A0080917A00816080937A0080914F
:100A10007A00806880937A001092C10000919A0158
:100A200010919B01C8010196811520E49207C8F43A
:100A3000880F991F0097C1F00E942D087C018091BA
:100A4000920190919301DC01F70130E020E0201742
:100A500031076CF44D915D91419351932F5F3F4F5E
:100A6000F6CF8FEF9FEFE8CF81E090E0E5CF000F6A
:100A7000111FF701E00FF11F24E631E031832083DD
:100A8000009711F00E94C908F0929301E092920140
:100A900080919A0190919B01019690939B01809384
:100AA0009A01E0919001F0919101138E128E118EB6
:100AB000108E178A168A82E490E0958F848F848541
:100AC000863108F03DC02FE030E0378B268B20E4E4
:100AD00030E0318F208F27E230E0338F228F9091EA
:100AE0006800883008F495C021E08E3008F420E0DA
:100AF00081E001C0880F2A95EAF7892B809368006E
:100B000084852DE630E0883050F02BE630E08E30E2
:100B100030F02CE630E0863110F030E020E0348B0D
:100B2000238B282F30E0883008F075C091E001C099
:100B3000990F8A95EAF7958B848D958D0197F1F73A
:100B4000CF010E941D0261E08DE00E94D80060E0AC
:100B50008DE00E948C0058E8852E54EF952EA12C34
:100B6000B12C68E4462E6FE5562E63E0662E712C9C
:100B70000091900110919101D801ED91FC910084B8
:100B8000F185E02DC8010995181619060CF002C16F
:100B9000D801ED91FC910284F385E02DC8010995FF
:100BA0008F838E3709F044C0E1E0E0939C011092FE
:100BB0009E0110929D0180919C018823E9F2809111
:100BC0009D0190919E01FC01E457FE4F2F81238BE4
:100BD000019690939E0180939D010A976CF210926A
:100BE0009C01E0918C01F0918D01309729F2609188
:100BF000A30170E0762F66278091A201680F711D16
:100C00008091A1014091A4015091A50190E0099526
:100C1000B3CF84E072CF8E3040F42850310991E098
:100C200001C0990F2A95EAF786CF2E503109F7CFE8
:100C300020919C01222309F49FCF20919D013091A6
:100C40009E012130310509F0BACF7C01FFE1EF228E
:100C5000FF248091940190919501E816F90681F5A1
:100C6000D801ED91FC910084F185E02DC801099532
:100C7000892B31F52091A9013091AA011216130692
:100C80009CF44091AB015091AC016091AD01709129
:100C9000AE018091AF019091B0010E944602109286
:100CA000AA011092A90187CF80919A0190919B018E
:100CB0002090980130909901892BA1F4F12C65C006
:100CC00080918E0190918F01E816F90609F473CF97
:100CD00010929C0170CF80919801909199012816F3
:100CE000390661F380919801909199019C01220F3E
:100CF000331FE0919201F0919301E20FF31FC08046
:100D0000D1800196909399018093980120919A0146
:100D100030919B018217930724F010929901109251
:100D20009801F601F480FF20B1F20190F081E02DEE
:100D30000190F081E02DC6010995B22FA32FF42F69
:100D4000E52FE62E788729833A834B835C836D8376
:100D50007E832D813E81121613060CF0BCCF2BE34F
:100D600036E0C9010197F1F720E130E04B2F5A2F0F
:100D70006F2F7E2F8E2D98850E944602D6011296E7
:100D8000ED91FC91309709F00995B1E0FB26F092C6
:100D90009C0111CF8FB7F894409184015091850147
:100DA00060918601709187018FBF80917F01909142
:100DB0008001A0918101B09182018053984FAF4F83
:100DC000BF4F84179507A607B707D0F480917E011F
:100DD0008823F1F0813009F454C02FB7F894809142
:100DE000840190918501A0918601B09187012FBF68
:100DF00080937F0190938001A0938101B093820141
:100E000080E090E0892B09F4B3CE0E940000B0CEC0
:100E10008EE591E090937D0180937C018092780132
:100E200090927901A0927A01B0927B01ACE0B0E09F
:100E3000B0937701A0937601E4E4F0E0F0937501BC
:100E4000E093740188EC90E09093730180937201B9
:100E500084E180937101A1E0B0E0B0937001A093B0
:100E60006F01E6E4F5E0F0936E01E0936D018DE231
:100E700090E090936C0180936B01F1E0F0937E0120
:100E8000ACCF81EB92E090937D0180937C01409206
:100E900078015092790160927A0170927B0184E628
:100EA00090E0909377018093760182E590E09093B3
:100EB00075018093740182EC91E0909373018093AB
:100EC000720185E5809371018AE190E09093700151
:100ED00080936F0182E399E190936E0180936D019D
:100EE00086E590E090936C0180936B0110927E01F7
:100EF00074CFEF92FF920F931F93CF93DF9382E112
:100F000090E0909395018093940183E090E090931A
:100F10009701809396011092990110929801109276
:100F2000AB011092AC011092AD011092AE01109283
:100F3000B0011092AF018FE190E00E942D08EC010A
:100F40001B821A8288EE93E0A0E0B0E08C839D8340
:100F5000AE83BF8380E191E0998388831F8A1E8AD4
:100F6000198E188E1B8E1A8E1D8E1C8E6E8D6E7FA6
:100F700062606E8F6695617081E0682783E00E94F1
:100F80008C0061E083E00E94D8009DE9E92E90E0AA
:100F9000F92EF7018491888B09E810E0F80184911B
:100FA000E82FF0E0EE0FFF1FE458FF4F859194917A
:100FB0009A8B898B60E083E00E94D8008E8D81FD42
:100FC00004C061E083E00E948C0083E08C87F7011D
:100FD000E490ED86F8010491E02FF0E0EE0FFF1FA2
:100FE000E859FF4F859194919F878E87D093910107
:100FF000C0939001109267011092660181E0809386
:1010000068018AE091E0909365018093640189E52D
:1010100093E090936A01809369012FB7F8948091CF
:10102000840190918501A0918601B09187012FBF25
:1010300080937F0190938001A0938101B0938201FE
:10104000DF91CF911F910F91FF90EF900895EE0FD8
:10105000FF1F0590F491E02D09940F931F93CF93F8
:10106000DF938230910510F482E090E0E091B301CB
:10107000F091B40130E020E0B0E0A0E0309799F4C6
:101080002115310509F44AC0281B390B24303105DC
:10109000D8F58A819B816115710589F1FB019383E4
:1010A0008283FE0111C04081518102811381481762
:1010B0005907E0F04817590799F4109761F0129614
:1010C0000C93129713961C933296CF01DF91CF9118
:1010D0001F910F9108950093B3011093B401F4CFC1
:1010E0002115310551F04217530738F0A901DB01F2
:1010F0009A01BD01DF01F801C1CFEF01F9CF909353
:10110000B4018093B301CDCFFE01E20FF31F8193B1
:1011100091932250310939832883D7CF2091B1018F
:101120003091B201232B41F420910201309103014F
:101130003093B2012093B10120910001309101015F
:101140002115310541F42DB73EB74091040150916E
:101150000501241B350BE091B101F091B201E217BA
:10116000F307A0F42E1B3F0B2817390778F0AC01CA
:101170004E5F5F4F2417350748F04E0F5F1F5093A7
:10118000B2014093B101819391939FCFF0E0E0E0F1
:101190009CCFCF93DF930097E9F0FC013297138245
:1011A0001282A091B301B091B401ED0130E020E0D2
:1011B0001097A1F420813181820F931F2091B101FA
:1011C0003091B2012817390709F061C0F093B201DC
:1011D000E093B101DF91CF910895EA01CE17DF07C7
:1011E000E8F54A815B819E0141155105B1F7E9019E
:1011F000FB83EA8349915991C40FD51FEC17FD0772
:1012000061F4808191810296840F951FE901998391
:101210008883828193819B838A83F0E0E0E0129649
:101220008D919C9113970097B9F52D913C91119751
:10123000CD010296820F931F2091B1013091B2012E
:101240002817390739F6309751F51092B4011092EA
:10125000B301B093B201A093B101BCCFD383C283D9
:1012600040815181840F951FC817D90761F44E5FE3
:101270005F4F88819981480F591F518340838A812C
:101280009B81938382832115310509F0B0CFF093C0
:10129000B401E093B3019ECFFD01DC01C0CF138206
:0812A0001282D7CFF894FFCFB2
:1012A8000000B501800000000000450300000000B8
:0E12B80074012E0142037301D001E6015B01B7
:00000001FF
